{"abi":[{"type":"constructor","inputs":[],"stateMutability":"nonpayable"},{"type":"function","name":"anchorCredential","inputs":[{"name":"_credentialHash","type":"bytes32","internalType":"bytes32"}],"outputs":[],"stateMutability":"nonpayable"},{"type":"function","name":"credentials","inputs":[{"name":"","type":"bytes32","internalType":"bytes32"}],"outputs":[{"name":"credentialHash","type":"bytes32","internalType":"bytes32"},{"name":"issuer","type":"address","internalType":"address"},{"name":"timestamp","type":"uint256","internalType":"uint256"}],"stateMutability":"view"},{"type":"function","name":"getCredential","inputs":[{"name":"_credentialHash","type":"bytes32","internalType":"bytes32"}],"outputs":[{"name":"","type":"tuple","internalType":"struct Credexa.Credential","components":[{"name":"credentialHash","type":"bytes32","internalType":"bytes32"},{"name":"issuer","type":"address","internalType":"address"},{"name":"timestamp","type":"uint256","internalType":"uint256"}]}],"stateMutability":"view"},{"type":"function","name":"owner","inputs":[],"outputs":[{"name":"","type":"address","internalType":"address"}],"stateMutability":"view"},{"type":"function","name":"renounceOwnership","inputs":[],"outputs":[],"stateMutability":"nonpayable"},{"type":"function","name":"transferOwnership","inputs":[{"name":"newOwner","type":"address","internalType":"address"}],"outputs":[],"stateMutability":"nonpayable"},{"type":"event","name":"CredentialAnchored","inputs":[{"name":"credentialHash","type":"bytes32","indexed":true,"internalType":"bytes32"},{"name":"issuer","type":"address","indexed":true,"internalType":"address"},{"name":"timestamp","type":"uint256","indexed":false,"internalType":"uint256"}],"anonymous":false},{"type":"event","name":"OwnershipTransferred","inputs":[{"name":"previousOwner","type":"address","indexed":true,"internalType":"address"},{"name":"newOwner","type":"address","indexed":true,"internalType":"address"}],"anonymous":false},{"type":"error","name":"CredentialAlreadyExists","inputs":[{"name":"credentialHash","type":"bytes32","internalType":"bytes32"}]},{"type":"error","name":"CredentialNotFound","inputs":[{"name":"credentialHash","type":"bytes32","internalType":"bytes32"}]},{"type":"error","name":"OwnableInvalidOwner","inputs":[{"name":"owner","type":"address","internalType":"address"}]},{"type":"error","name":"OwnableUnauthorizedAccount","inputs":[{"name":"account","type":"address","internalType":"address"}]}],"bytecode":{"object":"0x608060405234801561000f575f5ffd5b50335f73ffffffffffffffffffffffffffffffffffffffff168173ffffffffffffffffffffffffffffffffffffffff1603610081575f6040517f1e4fbdf70000000000000000000000000000000000000000000000000000000081526004016100789190610196565b60405180910390fd5b6100908161009660201b60201c565b506101af565b5f5f5f9054906101000a900473ffffffffffffffffffffffffffffffffffffffff169050815f5f6101000a81548173ffffffffffffffffffffffffffffffffffffffff021916908373ffffffffffffffffffffffffffffffffffffffff1602179055508173ffffffffffffffffffffffffffffffffffffffff168173ffffffffffffffffffffffffffffffffffffffff167f8be0079c531659141344cd1fd0a4f28419497f9722a3daafe3b4186f6b6457e060405160405180910390a35050565b5f73ffffffffffffffffffffffffffffffffffffffff82169050919050565b5f61018082610157565b9050919050565b61019081610176565b82525050565b5f6020820190506101a95f830184610187565b92915050565b61083f806101bc5f395ff3fe608060405234801561000f575f5ffd5b5060043610610060575f3560e01c806312d4919714610064578063299d034814610080578063715018a6146100b25780638da5cb5b146100bc578063d1be4883146100da578063f2fde38b1461010a575b5f5ffd5b61007e6004803603810190610079919061061d565b610126565b005b61009a6004803603810190610095919061061d565b610275565b6040516100a9939291906106ae565b60405180910390f35b6100ba6102ba565b005b6100c46102cd565b6040516100d191906106e3565b60405180910390f35b6100f460048036038101906100ef919061061d565b6102f4565b6040516101019190610769565b60405180910390f35b610124600480360381019061011f91906107ac565b6103df565b005b61012e610463565b5f60015f8381526020019081526020015f20600201541461018657806040517f87dbb50600000000000000000000000000000000000000000000000000000000815260040161017d91906107d7565b60405180910390fd5b60405180606001604052808281526020013373ffffffffffffffffffffffffffffffffffffffff1681526020014281525060015f8381526020019081526020015f205f820151815f01556020820151816001015f6101000a81548173ffffffffffffffffffffffffffffffffffffffff021916908373ffffffffffffffffffffffffffffffffffffffff160217905550604082015181600201559050503373ffffffffffffffffffffffffffffffffffffffff16817f6175b04d68794f2857f394688801d761e647f3149b406ebf2df387db911585144260405161026a91906107f0565b60405180910390a350565b6001602052805f5260405f205f91509050805f015490806001015f9054906101000a900473ffffffffffffffffffffffffffffffffffffffff16908060020154905083565b6102c2610463565b6102cb5f6104ea565b565b5f5f5f9054906101000a900473ffffffffffffffffffffffffffffffffffffffff16905090565b6102fc6105b2565b5f60015f8481526020019081526020015f20600201540361035457816040517f0d99a0d100000000000000000000000000000000000000000000000000000000815260040161034b91906107d7565b60405180910390fd5b60015f8381526020019081526020015f206040518060600160405290815f8201548152602001600182015f9054906101000a900473ffffffffffffffffffffffffffffffffffffffff1673ffffffffffffffffffffffffffffffffffffffff1673ffffffffffffffffffffffffffffffffffffffff1681526020016002820154815250509050919050565b6103e7610463565b5f73ffffffffffffffffffffffffffffffffffffffff168173ffffffffffffffffffffffffffffffffffffffff1603610457575f6040517f1e4fbdf700000000000000000000000000000000000000000000000000000000815260040161044e91906106e3565b60405180910390fd5b610460816104ea565b50565b61046b6105ab565b73ffffffffffffffffffffffffffffffffffffffff166104896102cd565b73ffffffffffffffffffffffffffffffffffffffff16146104e8576104ac6105ab565b6040517f118cdaa70000000000000000000000000000000000000000000000000000000081526004016104df91906106e3565b60405180910390fd5b565b5f5f5f9054906101000a900473ffffffffffffffffffffffffffffffffffffffff169050815f5f6101000a81548173ffffffffffffffffffffffffffffffffffffffff021916908373ffffffffffffffffffffffffffffffffffffffff1602179055508173ffffffffffffffffffffffffffffffffffffffff168173ffffffffffffffffffffffffffffffffffffffff167f8be0079c531659141344cd1fd0a4f28419497f9722a3daafe3b4186f6b6457e060405160405180910390a35050565b5f33905090565b60405180606001604052805f81526020015f73ffffffffffffffffffffffffffffffffffffffff1681526020015f81525090565b5f5ffd5b5f819050919050565b6105fc816105ea565b8114610606575f5ffd5b50565b5f81359050610617816105f3565b92915050565b5f60208284031215610632576106316105e6565b5b5f61063f84828501610609565b91505092915050565b610651816105ea565b82525050565b5f73ffffffffffffffffffffffffffffffffffffffff82169050919050565b5f61068082610657565b9050919050565b61069081610676565b82525050565b5f819050919050565b6106a881610696565b82525050565b5f6060820190506106c15f830186610648565b6106ce6020830185610687565b6106db604083018461069f565b949350505050565b5f6020820190506106f65f830184610687565b92915050565b610705816105ea565b82525050565b61071481610676565b82525050565b61072381610696565b82525050565b606082015f82015161073d5f8501826106fc565b506020820151610750602085018261070b565b506040820151610763604085018261071a565b50505050565b5f60608201905061077c5f830184610729565b92915050565b61078b81610676565b8114610795575f5ffd5b50565b5f813590506107a681610782565b92915050565b5f602082840312156107c1576107c06105e6565b5b5f6107ce84828501610798565b91505092915050565b5f6020820190506107ea5f830184610648565b92915050565b5f6020820190506108035f83018461069f565b9291505056fea2646970667358221220c9b9db2a69f669c2eaf9a3155c90b538f30bdec60f773b45ea3fe8198096557b64736f6c634300081e0033","linkReferences":{}},"methodIdentifiers":{"anchorCredential(bytes32)":"12d49197","credentials(bytes32)":"299d0348","getCredential(bytes32)":"d1be4883","owner()":"8da5cb5b","renounceOwnership()":"715018a6","transferOwnership(address)":"f2fde38b"},"id":21}